{
    "txid": "41540165c1f6bf0c9ca1586ffd074cd4d1015990d0a34e361b60cf2838d455f0",
    "hash": "41540165c1f6bf0c9ca1586ffd074cd4d1015990d0a34e361b60cf2838d455f0",
    "version": 1,
    "size": 85,
    "vsize": 85,
    "weight": 340,
    "locktime": 0,
    "vin": [
        {
            "ismweb": false,
            "txid": "6c2789243608b46f750f49ff24f6f79a78c3010f7e56951e045e5b7ea5d07bf7",
            "vout": 0,
            "scriptSig": {
                "asm": "",
                "hex": ""
            },
            "sequence": 4294967295
        }
    ],
    "vout": [
        {
            "ismweb": false,
            "value": 0.00100000,
            "n": 0,
            "scriptPubKey": {
                "asm": "OP_DUP OP_HASH160 971c74b4df404c97f8db4daa4f215d2296e999ab OP_EQUALVERIFY OP_CHECKSIG",
                "hex": "76a914971c74b4df404c97f8db4daa4f215d2296e999ab88ac",
                "reqSigs": 1,
                "type": "pubkeyhash",
                "addresses": [
                    "9gsfoPz4efUgZga6LiH5g8bpoVpDynewKb"
                ]
            }
        }
    ],
    "hex": "0100000001f77bd0a57e5b5e041e95567e0f01c3789af7f624ff490f756fb408362489276c0000000000ffffffff01a0860100000000001976a914971c74b4df404c97f8db4daa4f215d2296e999ab88ac00000000"
}
