{
    "txid": "bc34782c73f7ce5d0cae111dce6938482065442d4c70a9aceaaa6199e0a0f42e",
    "hash": "bc34782c73f7ce5d0cae111dce6938482065442d4c70a9aceaaa6199e0a0f42e",
    "version": 2,
    "size": 176,
    "vsize": 176,
    "weight": 704,
    "locktime": 0,
    "vin": [
        {
            "ismweb": false,
            "txid": "69e9c12d30a6cd598a31ddfcaabeb9d9f0baf8938bf0ba6610beb04f589cc5ef",
            "vout": 0,
            "scriptSig": {
                "asm": "",
                "hex": ""
            },
            "sequence": 4294967295
        }
    ],
    "vout": [
        {
            "ismweb": false,
            "value": 0.00200000,
            "n": 0,
            "scriptPubKey": {
                "asm": "OP_DUP OP_HASH160 971c74b4df404c97f8db4daa4f215d2296e999ab OP_EQUALVERIFY OP_CHECKSIG",
                "hex": "76a914971c74b4df404c97f8db4daa4f215d2296e999ab88ac",
                "reqSigs": 1,
                "type": "pubkeyhash",
                "addresses": [
                    "9gsfoPz4efUgZga6LiH5g8bpoVpDynewKb"
                ]
            }
        },
        {
            "ismweb": false,
            "value": 0.00000000,
            "n": 1,
            "scriptPubKey": {
                "asm": "OP_RETURN 54686973204f505f52455455524e207472616e73616374696f6e206f7574707574207761732063726561746564206279206d6f646966696564206372656174657261777472616e73616374696f6e2e",
                "hex": "6a4c4f54686973204f505f52455455524e207472616e73616374696f6e206f7574707574207761732063726561746564206279206d6f646966696564206372656174657261777472616e73616374696f6e2e",
                "type": "nulldata"
            }
        }
    ],
    "hex": "0200000001efc59c584fb0be1066baf08b93f8baf0d9b9beaafcdd318a59cda6302dc1e9690000000000ffffffff02400d0300000000001976a914971c74b4df404c97f8db4daa4f215d2296e999ab88ac0000000000000000526a4c4f54686973204f505f52455455524e207472616e73616374696f6e206f7574707574207761732063726561746564206279206d6f646966696564206372656174657261777472616e73616374696f6e2e00000000"
}
