{
    "txid": "9d1f6e2bf6967ebca1e7756c64af67099e5ed4cc4cf8986dafdde003aba70e26",
    "hash": "9d1f6e2bf6967ebca1e7756c64af67099e5ed4cc4cf8986dafdde003aba70e26",
    "version": 2,
    "size": 201,
    "vsize": 201,
    "weight": 804,
    "locktime": 0,
    "vin": [
        {
            "ismweb": false,
            "txid": "5ee62e3f7757f5fd995b2fa1bdb5b744298146098d5de92959ec4b52dc77191e",
            "vout": 1,
            "scriptSig": {
                "asm": "",
                "hex": ""
            },
            "sequence": 4294967295
        },
        {
            "ismweb": false,
            "txid": "3cd215c1c6b7ae33bc6266f268fd212b83860e13902b454502ce6d54448e398a",
            "vout": 25,
            "scriptSig": {
                "asm": "",
                "hex": ""
            },
            "sequence": 4294967295
        },
        {
            "ismweb": false,
            "txid": "0f941395005b80a61726baecebb11d7caa184a1a58246daff7dffca793ab07b8",
            "vout": 12,
            "scriptSig": {
                "asm": "",
                "hex": ""
            },
            "sequence": 4294967295
        }
    ],
    "vout": [
        {
            "ismweb": false,
            "value": 12.52000000,
            "n": 0,
            "scriptPubKey": {
                "asm": "OP_DUP OP_HASH160 14939df2d2bfc453e851ea68516f422370147020 OP_EQUALVERIFY OP_CHECKSIG",
                "hex": "76a91414939df2d2bfc453e851ea68516f42237014702088ac",
                "reqSigs": 1,
                "type": "pubkeyhash",
                "addresses": [
                    "9UyU2j3oqfkixdtRnwrf1qZZpPcXNPHxqV"
                ]
            }
        },
        {
            "ismweb": false,
            "value": 0.01000487,
            "n": 1,
            "scriptPubKey": {
                "asm": "OP_DUP OP_HASH160 7238128bc8ed75cd8e63cbfa0279efbb0f4200a5 OP_EQUALVERIFY OP_CHECKSIG",
                "hex": "76a9147238128bc8ed75cd8e63cbfa0279efbb0f4200a588ac",
                "reqSigs": 1,
                "type": "pubkeyhash",
                "addresses": [
                    "9dWbt8b4WgTSjCUE29aSC54b2WJuHPodbT"
                ]
            }
        }
    ],
    "hex": "02000000031e1977dc524bec5929e95d8d0946812944b7b5bda12f5b99fdf557773f2ee65e0100000000ffffffff8a398e44546dce0245452b90130e86832b21fd68f26662bc33aeb7c6c115d23c1900000000ffffffffb807ab93a7fcdff7af6d24581a4a18aa7c1db1ebecba2617a6805b009513940f0c00000000ffffffff020001a04a000000001976a91414939df2d2bfc453e851ea68516f42237014702088ac27440f00000000001976a9147238128bc8ed75cd8e63cbfa0279efbb0f4200a588ac00000000"
}
