{
    "txid": "30c0c03659525867f91ed19e46026c06578e24485ae1f8a8b9ec470bbeeb9549",
    "hash": "30c0c03659525867f91ed19e46026c06578e24485ae1f8a8b9ec470bbeeb9549",
    "version": 2,
    "size": 85,
    "vsize": 85,
    "weight": 340,
    "locktime": 0,
    "vin": [
        {
            "ismweb": false,
            "txid": "69e9c12d30a6cd598a31ddfcaabeb9d9f0baf8938bf0ba6610beb04f589cc5ef",
            "vout": 0,
            "scriptSig": {
                "asm": "",
                "hex": ""
            },
            "sequence": 4294967293
        }
    ],
    "vout": [
        {
            "ismweb": false,
            "value": 0.00200000,
            "n": 0,
            "scriptPubKey": {
                "asm": "OP_DUP OP_HASH160 971c74b4df404c97f8db4daa4f215d2296e999ab OP_EQUALVERIFY OP_CHECKSIG",
                "hex": "76a914971c74b4df404c97f8db4daa4f215d2296e999ab88ac",
                "reqSigs": 1,
                "type": "pubkeyhash",
                "addresses": [
                    "9gsfoPz4efUgZga6LiH5g8bpoVpDynewKb"
                ]
            }
        }
    ],
    "hex": "0200000001efc59c584fb0be1066baf08b93f8baf0d9b9beaafcdd318a59cda6302dc1e9690000000000fdffffff01400d0300000000001976a914971c74b4df404c97f8db4daa4f215d2296e999ab88ac00000000"
}
